{
	"data": {
		"bytecode": {
			"linkReferences": {},
			"object": "608060405261012c60005534801561001657600080fd5b5060cc806100256000396000f3fe6080604052348015600f57600080fd5b506004361060285760003560e01c80637766aaf714602d575b600080fd5b60336047565b604051603e91906071565b60405180910390f35b600061012c6000541415605c57600190506061565b600090505b90565b606b81608a565b82525050565b6000602082019050608460008301846064565b92915050565b6000811515905091905056fea2646970667358221220fe86989583a21e4bd2b2c0fcd4599440a161560cfc52e3ca5ce512951c3b5b4864736f6c63430008060033",
			"opcodes": "PUSH1 0x80 PUSH1 0x40 MSTORE PUSH2 0x12C PUSH1 0x0 SSTORE CALLVALUE DUP1 ISZERO PUSH2 0x16 JUMPI PUSH1 0x0 DUP1 REVERT JUMPDEST POP PUSH1 0xCC DUP1 PUSH2 0x25 PUSH1 0x0 CODECOPY PUSH1 0x0 RETURN INVALID PUSH1 0x80 PUSH1 0x40 MSTORE CALLVALUE DUP1 ISZERO PUSH1 0xF JUMPI PUSH1 0x0 DUP1 REVERT JUMPDEST POP PUSH1 0x4 CALLDATASIZE LT PUSH1 0x28 JUMPI PUSH1 0x0 CALLDATALOAD PUSH1 0xE0 SHR DUP1 PUSH4 0x7766AAF7 EQ PUSH1 0x2D JUMPI JUMPDEST PUSH1 0x0 DUP1 REVERT JUMPDEST PUSH1 0x33 PUSH1 0x47 JUMP JUMPDEST PUSH1 0x40 MLOAD PUSH1 0x3E SWAP2 SWAP1 PUSH1 0x71 JUMP JUMPDEST PUSH1 0x40 MLOAD DUP1 SWAP2 SUB SWAP1 RETURN JUMPDEST PUSH1 0x0 PUSH2 0x12C PUSH1 0x0 SLOAD EQ ISZERO PUSH1 0x5C JUMPI PUSH1 0x1 SWAP1 POP PUSH1 0x61 JUMP JUMPDEST PUSH1 0x0 SWAP1 POP JUMPDEST SWAP1 JUMP JUMPDEST PUSH1 0x6B DUP2 PUSH1 0x8A JUMP JUMPDEST DUP3 MSTORE POP POP JUMP JUMPDEST PUSH1 0x0 PUSH1 0x20 DUP3 ADD SWAP1 POP PUSH1 0x84 PUSH1 0x0 DUP4 ADD DUP5 PUSH1 0x64 JUMP JUMPDEST SWAP3 SWAP2 POP POP JUMP JUMPDEST PUSH1 0x0 DUP2 ISZERO ISZERO SWAP1 POP SWAP2 SWAP1 POP JUMP INVALID LOG2 PUSH5 0x6970667358 0x22 SLT KECCAK256 INVALID DUP7 SWAP9 SWAP6 DUP4 LOG2 0x1E 0x4B 0xD2 0xB2 0xC0 0xFC 0xD4 MSIZE SWAP5 BLOCKHASH LOG1 PUSH2 0x560C 0xFC MSTORE 0xE3 0xCA 0x5C 0xE5 SLT SWAP6 SHR EXTCODESIZE JUMPDEST 0x48 PUSH5 0x736F6C6343 STOP ADDMOD MOD STOP CALLER "
		},
		"gasEstimates": {
			"creation": {
				"codeDepositCost": "40800",
				"executionCost": "22199",
				"totalCost": "62999"
			},
			"external": {
				"validateAmount()": "2458"
			}
		},
		"methodIdentifiers": {
			"validateAmount()": "7766aaf7"
		}
	},
	"abi": [
		{
			"inputs": [],
			"name": "validateAmount",
			"outputs": [
				{
					"internalType": "bool",
					"name": "",
					"type": "bool"
				}
			],
			"stateMutability": "view",
			"type": "function"
		}
	]
}